:020000040000FA
:100000000C9462000C948A000C948A000C948B145B
:100010000C948B140C948B140C948A000C948A000E
:100020000C948A000C948A000C948A000C9422167A
:100030000C948A000C948A000C948A000C948A0018
:100040000C94E9130C948A000C9459140C943314F6
:100050000C948A000C948A000C948A000C948A00F8
:100060000C9403150C948A00000000002400270063
:100070002A0000000008000201000003040700003D
:1000800000000000000000000000230026002900FE
:1000900000000000250028002B00040404040404D0
:1000A0000404020202020202030303030303010227
:1000B00004081020408001020408102001020408F6
:1000C0001020431711241FBECFEFD8E0DEBFCDBFF5
:1000D00012E0A0E0B1E0E6E4FCE302C005900D927E
:1000E000A437B107D9F726E0A4E7B2E001C01D921A
:1000F000A231B207E1F710E0C2E6D0E004C02197D8
:10010000FE010E94E71CC136D107C9F70E94701892
:100110000C94211E0C940000862FE0919603F09120
:100120009703309711F0BA0109940895862FE09152
:100130009403F0919503309711F0BA010994089552
:10014000862FE0919203F0919303309711F0BA015A
:1001500009940895862FE0919003F09191033097D0
:1001600011F0BA0109940895862FE0918E03F09161
:100170008F03309711F0BA0109940895862FE0910A
:100180008C03F0918D03309711F0BA010994089512
:100190000895862F642FE0919803F091990330978A
:1001A00011F0A90109940895E0919A03F0919B033D
:1001B000309709F009940895A0914605B09147053C
:1001C000ED91FC9111970190F081E02D682FCD0108
:1001D00009941F93CF93DF93182FEB0180910D05A6
:1001E00090910E056817790760F480910B05909146
:1001F0000C05C80FD91F188380E0DF91CF911F91A4
:100200000895E0913A05F0913B05309711F481E0B3
:10021000F4CF81E080930A0580912605909127050F
:10022000099580910D0590910E05C817D90778F7AB
:10023000DCCFCF93DF93EC01FB0130E020E0C9017C
:10024000880F991F8C179D0778F44081DB014D932F
:10025000BD0111979181979599279795942B9C9320
:100260002F5F3F4F3296EBCFC901DF91CF910895B9
:10027000CF92DF92EF92FF92CF93DF93EC016A016E
:100280007B01E889F98982E08083C11481EED80678
:10029000E104F104A1F060E079E08DE390E0A701D2
:1002A00096010E94AA1C2150310941095109569515
:1002B000479537952795211580E1380798F0E8890B
:1002C000F989108260E874E88EE190E0A701960158
:1002D0000E94AA1C215031094109510956954795A0
:1002E00037952795EC85FD853083EE85FF85208346
:1002F000188EEC89FD8986E08083EA89FB898081FC
:1003000080618083EA89FB89808188608083EA89B3
:10031000FB89808180688083EA89FB8980818F7D69
:100320008083DF91CF91FF90EF90DF90CF90089581
:10033000CF93DF93FC01A081B181109701F1EC0113
:10034000ED91FC9111970190F081E02D69EFCD01C5
:10035000099588819981DC01ED91FC910190F081F2
:10036000E02D62E0099588819981DC01ED91FC9195
:100370000190F081E02D65E0DF91CF910994DF914C
:10038000CF91089590E0FC01EE58FF4F2491FC01BD
:10039000E255FF4F3491FC01E656FF4FE491EE2306
:1003A000C9F0222339F0233001F1A8F4213019F1EA
:1003B000223029F1F0E0EE0FFF1FE057FF4FA5912B
:1003C000B4918FB7F894EC91611126C030953E231B
:1003D0003C938FBF08952730A9F02830C9F024300E
:1003E00049F7809180008F7D03C0809180008F77D6
:1003F00080938000DFCF84B58F7784BDDBCF84B559
:100400008F7DFBCF8091B0008F778093B000D2CFEB
:100410008091B0008F7DF9CF3E2BDACFCF93DF9361
:1004200090E0FC01E255FF4F249186569F4FFC015E
:1004300084918823C9F090E0880F991FFC01E85946
:10044000FF4FA591B491FC01E057FF4FC591D491A6
:1004500061110DC09FB7F8948C91209582238C93E5
:100460008881282328839FBFDF91CF910895623030
:1004700051F49FB7F8943C91822F809583238C93FD
:10048000E8812E2BEFCF8FB7F894EC912E2B2C9385
:100490008FBFEACF8E3008F08E50877080648093D3
:1004A0007C0080917A00806480937A0080917A0049
:1004B00086FDFCCF809178009091790008953FB738
:1004C000F8948091D7039091D803A091D903B0916B
:1004D000DA0326B5A89B05C02F3F19F00196A11D90
:1004E000B11D3FBFBA2FA92F982F8827BC01CD017E
:1004F000620F711D811D911D42E0660F771F881FDD
:10050000991F4A95D1F708958F929F92AF92BF920B
:10051000CF92DF92EF92FF926B017C010E945F020B
:100520004B015C01C114D104E104F104B9F00E9453
:100530005F02681979098A099B09683E7340810541
:10054000910580F321E0C21AD108E108F10888EE94
:10055000880E83E0981EA11CB11CE4CFFF90EF90A1
:10056000DF90CF90BF90AF909F908F9008950097AD
:1005700021F0805C9F4F0C9498010895AF92BF9238
:10058000CF92DF92EF92FF920F931F93CF93DF935F
:100590006C017B018B01040F151FEB015E01AE188E
:1005A000BF08C017D10759F06991D601ED91FC91B0
:1005B0000190F081E02DC6010995892B79F7C501DD
:1005C000DF91CF911F910F91FF90EF90DF90CF902F
:1005D000BF90AF900895FC01538D448D252F30E0DE
:1005E000842F90E0821B930B541710F0CF96089540
:1005F00001970895FC01918D828D981761F0A28D6D
:10060000AE0FBF2FB11D5D968C91928D9F5F9F7332
:10061000928F90E008958FEF9FEF0895FC01918DE8
:10062000828D981731F0828DE80FF11D858D90E055
:1006300008958FEF9FEF0895FC01918D228D892FF2
:1006400090E0805C9F4F821B91098F7399270895DA
:100650008BE294E00E941C0321E0892B09F420E046
:10066000822F089580E090E0892B29F00E942803D2
:1006700081110C9400000895FC01A48DA80FB92FDE
:10068000B11DA35ABF4F2C91848D90E001968F73BA
:100690009927848FA689B7892C93A089B1898C91D9
:1006A000837080648C93938D848D981306C0028828
:1006B000F389E02D80818F7D80830895EF92FF92F2
:1006C0000F931F93CF93DF93EC0181E0888F9B8D75
:1006D0008C8D98131AC0E889F989808185FF15C02F
:1006E0009FB7F894EE89FF896083E889F989808152
:1006F0008370806480839FBF81E090E0DF91CF9121
:100700001F910F91FF90EF900895F62E0B8D10E042
:100710000F5F1F4F0F731127E02E8C8D8E110CC0B1
:100720000FB607FCFACFE889F989808185FFF5CFFC
:10073000CE010E943C03F1CFEB8DEC0FFD2FF11D9C
:10074000E35AFF4FF0829FB7F8940B8FEA89FB8939
:1007500080818062CFCFCF93DF93EC01888D882397
:10076000B9F0AA89BB89E889F9898C9185FD03C014
:10077000808186FD0DC00FB607FCF7CF8C9185FFF9
:10078000F2CF808185FFEDCFCE010E943C03E9CFFF
:10079000DF91CF9108952091A2033091A3032817F0
:1007A000390771F490918B0380918A03981741F077
:1007B000E0918B03F0E0E65BFC4F808190E00895D0
:1007C0008FEF9FEF08950895EF92FF920F931F937D
:1007D000CF93DF93DC015C96ED90FC905D97E11484
:1007E000F10479F481E090E013969C938E93129734
:1007F00090E080E0DF91CF911F910F91FF90EF90FB
:1008000008955196ED91FC91529750968C91509786
:10081000982F90950FB75E962C915E97122F1270BD
:1008200021FD6095F8942081112319F1282B208354
:10083000E7012197F1F728E0462F50E0308160FF73
:100840001AC0382B3083E7012197F1F7BA0175956B
:100850006795215089F7112381F080818923808356
:100860000FBF5C968D919C910197F1F781E090E02C
:10087000C1CF2923DCCF3923E5CF9081892BEFCF5E
:100880002091A2033091A3032817390761F48091C6
:100890008A0320918B0390E0805C9F4F821B91091B
:1008A0008F739927089590E080E008952091A20326
:1008B0003091A30328173907B9F490918B038091E5
:1008C0008A03981789F0E0918B03F0E0E65BFC4F18
:1008D000808120918B0330E02F5F3F4F2F733327B0
:1008E00020938B0390E008958FEF9FEF0895E091A0
:1008F000A203F091A303E817F90769F4A389B48967
:100900009C918589809589238C931092A3031092E2
:10091000A20381E0089580E00895CF93DF93EC0176
:100920008A8D9B8D892B01F18091A2039091A30365
:100930008C179D07C9F0009711F00E9477048E8DE7
:100940008E7F8E8F10928A0310928B03D093A30315
:10095000C093A203EB89FC8980819D89892B8083C8
:1009600081E0DF91CF91089580E0FBCFFC016930F9
:1009700081F028F4683051F090E080E008956A300A
:1009800059F06B30C9F781A592A5089583A194A170
:10099000089585A196A1089587A190A50895089529
:1009A0004A30510559F4E62FF0E0E55BFA4F8081BB
:1009B0008F3711F08AE0808381E0089580E0089508
:1009C0005F926F927F928F929F92AF92BF92CF92DF
:1009D000DF92EF92FF920F931F93CF93DF935C010F
:1009E0006901DA015C90232B19F4CC24CA94DC2C25
:1009F0008A013A01660E771ED0E0C0E0F12CE12CAE
:100A000087E0882E912CF50180819181D8016C912D
:100A10000C2E01C0660F0A94EAF765296F77DC0196
:100A2000ED91FC910190F081E02D0995BFEFEB1A5B
:100A3000FB0AF801608170E0C4018C1B9D0B02C0B1
:100A4000759567958A95E2F7562E2196C730D105A0
:100A500058F1CE14DF0441F1D5018D919C91652DA3
:100A60006F77DC01ED91FC910190F081E02D09950B
:100A7000BFEFEB1AFB0A551C5524551C2797E6CFF0
:100A8000EC14FD0408F4BFCFDF91CF911F910F91BB
:100A9000FF90EF90DF90CF90BF90AF909F908F909E
:100AA0007F906F905F9008950F5F1F4F60167106E3
:100AB00039F7209749F3EC14FD0430F7F5018081F4
:100AC000918161E070E001C0660FCA95EAF761505C
:100AD0006521DC01ED91FC910190F081E02DDF9129
:100AE000CF911F910F91FF90EF90DF90CF90BF902B
:100AF000AF909F908F907F906F905F9009941F931D
:100B0000CF93DF9300D0CDB7DEB7182F7A836983F8
:100B100080910805909109050097C9F0DC01ED91DD
:100B2000FC910190F081E02D1031B8F46115704412
:100B3000A0F4612F606E099522E030E0AE014F5FB6
:100B40005F4F62E070E088E095E00E94E0040F9063
:100B50000F90DF91CF911F91089560EF09958091DB
:100B6000080590910905DC01ED91FC910190F0815F
:100B7000E02D6FE609958091080590910905DC014B
:100B8000ED91FC910190F081E02D612F099522E01B
:100B900030E0AE014F5F5F4F62E070E088E095E0CB
:100BA0000E94E0048091080590910905DC01ED9117
:100BB000FC910190F081E02D67EF0995C8CFEF928D
:100BC000FF920F931F93CF93DF93C82F8091080557
:100BD000909109050097C9F17A018B01DC01ED9133
:100BE000FC910190F081E02D60EF0995809108055E
:100BF00090910905DC01ED91FC910190F081E02DCF
:100C00006C2F0995E7010E0D1F1DC017D10759F074
:100C100030E020E0AE0161E070E088E095E00E9405
:100C2000E0042196F2CF8091080590910905DC013E
:100C3000ED91FC910190F081E02D67EFDF91CF9174
:100C40001F910F91FF90EF900994DF91CF911F9129
:100C50000F91FF90EF900895CF92DF92EF92FF9265
:100C60000F931F93CF93DF93FC01E058FF4FE08079
:100C7000EE2009F45CC0EC01C05CDF4FA881B981B3
:100C8000109709F454C0FC01EF57FF4FC080D1808A
:100C9000F60111810081ED91FC9111970190F08195
:100CA000E02D60EFCD01099588819981DC01ED91FE
:100CB000FC910190F081E02D69E709958881998187
:100CC000DC01ED91FC910190F081E02D602F099500
:100CD00088819981DC01ED91FC910190F081E02DFA
:100CE000612F0995F12C01E010E00F5F1F4FE01616
:100CF000F10659F030E020E0A601400F511F61E0FD
:100D000070E0CE010E94E004F0CF88819981DC017F
:100D1000ED91FC910190F081E02D67EFDF91CF9193
:100D20001F910F91FF90EF90DF90CF900994DF918A
:100D3000CF911F910F91FF90EF90DF90CF9008958A
:100D4000009711F00C942C06089520912503260F8E
:100D50003327331F21323105ECF420910104FC01CB
:100D600090E080E0243069F082E00895A0912503AE
:100D70002191AC014D5F5C4FA40FB52FB11D2C9399
:100D80000196861798F380912503680F60932503D9
:100D900080E0089581E008951092010481E080933D
:100DA00000041092DB0361E082E10E94C20161E075
:100DB00083E10E94C201E9EBF0E080818E7F8083B5
:100DC00080818D7F808388E48093B80085E4809360
:100DD000BC000895CF93DF9391E0909302038823A2
:100DE000B9F0C091B800D091BA008091BC008A7B64
:100DF0008093BC0060E082E10E94C20160E083E178
:100E00000E94C2010E94CC06D093BA00C093B800E1
:100E1000DF91CF9108958F929F92AF92BF92CF9220
:100E2000DF92EF92FF920F931F93CF93DF93D091B6
:100E30002A04D13208F0D7C0182FC09129040E948B
:100E40005F026B017C018091010481116BC082E023
:100E500080930104109300048FEF8093FF0310929E
:100E6000FE03D093FD03A9E0B4E0EDEDF3E080E0F4
:100E7000D81391C01092DC038091DC03CC0FC82BF7
:100E8000C093DC038091DB03813009F088C01092AD
:100E9000DB030E945F026B017C018091DC03809385
:100EA000BB008091030490910404A0910504B091CB
:100EB0000604892B8A2B8B2BA1F00E945F020091E4
:100EC00003041091040420910504309106046C1968
:100ED0007D098E099F09061717072807390708F4A7
:100EE00042C08091BC0083FDD8CF85EC8093BC00CC
:100EF0000E945F026B017C0180910104823009F441
:100F000050C08091FF038F3F09F46FC08091FF03B1
:100F1000803209F46CC08091FF03803309F469C00A
:100F200084E026C08091030490910404A0910504FC
:100F3000B0910604892B8A2B8B2B09F484CF0E9455
:100F40005F028090030490900404A0900504B09088
:100F500006046C197D098E099F0986169706A80656
:100F6000B90608F070CF809102040E94EA0685E07D
:100F70001092080410922A0410920704DF91CF9176
:100F80001F910F91FF90EF90DF90CF90BF90AF90A7
:100F90009F908F9008959D9191938F5F69CF85EE7B
:100FA000A5CF8091030490910404A0910504B09111
:100FB0000604892B8A2B8B2B09F49ECF0E945F029B
:100FC000009103041091040420910504309106045B
:100FD0006C197D098E099F0906171707280739071D
:100FE00008F08ACFC0CF81E0C3CF80E0C1CF82E0DC
:100FF000BFCF83E0BDCF08950895E09101038091B4
:101000000003E81730F4F0E0E052FD4F808190E0FB
:1010100008958FEF9FEF0895909101038091000351
:101020002FEF3FEF981748F4E92FF0E0E052FD4F23
:10103000208130E09F5F90930103C9010895809162
:10104000000390910103891B990B0895CF92DF92C1
:10105000EF92FF920F931F93CF93DF937C01CB010D
:101060008A0120910704222389F0EB016B01C40E51
:10107000D51ECC15DD0569F06991D701ED91FC9184
:101080000190F081E02DC7010995F3CF642F0E94F4
:10109000A506C801DF91CF911F910F91FF90EF90AE
:1010A000DF90CF900895CF93DF931F92CDB7DEB737
:1010B0006983209107042223F9F020912A04203229
:1010C00058F021E030E0FC013383228390E080E09F
:1010D0000F90DF91CF91089580910804E82FF0E000
:1010E000E75FFB4F998190838F5F80930804809323
:1010F0002A0481E090E0ECCF61E0CE0101960E94ED
:10110000A506F7CF90E080E00895DF92EF92FF927E
:101110000F931F93CF93DF93EC01D62E7A018901B1
:1011200088818C3008F067C061E08D2D0E940E022E
:101130008881282F30E0F901EE0FFF1FE20FF31F27
:10114000E656FA4F9D2D9F736081607C692B60830A
:1011500020E232E02E193F0937FF02C02D5F3F4FDA
:101160003595279535952795298320E639E0201B6D
:10117000310B37FF02C02D5F3F4F359527953595D1
:1011800027952A832CE0622F0E94DB1C829FB001EE
:10119000112430E020E0AB01420F531FFA01EE0FA3
:1011A000FF1FE40FF51FE656FA4F908196FD16C01B
:1011B0002F5F3F4F2C30310571F781110FC0109216
:1011C000800082E08093810010928500109284005C
:1011D000B19A80916F00826080936F00E8818E2FBA
:1011E00090E0FC01EE0FFF1FE80FF91FE656FA4FE3
:1011F0008081806480838881DF91CF911F910F91DE
:10120000FF90EF90DF900895CF938830B0F421E005
:1012100030E0082E02C0220F331F0A94E2F74091FB
:10122000CC035091CD03672B51F4209530952423A6
:1012300035233093CD032093CC03CF910895242BF5
:10124000352B3093CD032093CC039091DE02911186
:10125000F4CFC82F0E944A02BC018C2FCF910C946E
:101260007F055F926F927F928F929F92AF92BF9213
:10127000CF92DF92EF92FF920F931F93CF93DF9362
:10128000833008F061C0D1E0D80FDD0FDD0FDD0F36
:101290005D2ED73110F046E1542EC62F082FD850BE
:1012A0008D2E912CC401880F991F9C0128533B4F10
:1012B0005901D12CC12C10E077247394D515C8F5B1
:1012C0008EEF8D0F8231F8F4F601E80DF91DE55B24
:1012D000FA4F90819230B8F48C2F87216624639462
:1012E000811101C0612C7601EE0CFF1C913089F454
:1012F000172939E9E30EF11CF501EE0DFF1D862DCE
:1013000090E091838083770CDF5F8FEFC81AD80A53
:10131000D5CF882371F3F701E756FF4FEA0DFB1D88
:1013200080819181019729F362E08D2F0E940E0246
:10133000E0CF011119C0F8948BB16C2F68276C7F36
:10134000612368276BB97894DF91CF911F910F913A
:10135000FF90EF90DF90CF90BF90AF909F908F90D5
:101360007F906F905F9008950130D1F4C123F8947D
:1013700095B1812F8F73809589239C2F9F73892B23
:1013800085B988B1612F62956695669563706095A1
:101390006823C295C695C695C370C62BC8B9D3CF6E
:1013A0001F70F89498B1812F880F880F809589233A
:1013B000C123CC0FCC0FC82BF1CF8F929F92AF924D
:1013C000BF92CF92DF92EF92FF920F931F93CF9332
:1013D000DF93EB01863108F098C0082F10E0F80188
:1013E000E55BFA4F9081933009F49CC0943009F08A
:1013F0008CC08250823108F081C0F801EC53FD4F5F
:10140000C080D12C7601EE0CFF1C4B01603282E0D3
:1014100078070CF03EC0F701EC0DFD1DE154FA4FCA
:101420008181A8E88A2E912C881A910887FD9394CF
:10143000880C991C880C991C092C000CAA08BB0864
:10144000828128E532E0281B310987FD3395220F80
:10145000331F220F331F032E000C440B550B28198A
:1014600039094A095B09DB01653B710514F0A4EBFE
:10147000B0E0B7FF02C0B0E0A0E00E94A21C24EBE5
:1014800030E040E050E00E94781C820E931EA41EC3
:10149000B51EF701EC0DFD1DE154FA4F20812C30F3
:1014A00068F5318188E890E0831B910937FD9395B9
:1014B000880F991F880F991F881699067CF0328132
:1014C00088E592E0831B910937FD9395880F991F5A
:1014D000880F991F881699060CF4C4010297880F8B
:1014E000991F4FB7F89430E0F901EE0FFF1FE20F9C
:1014F000F31FE656FA4F928381834FBF000F111FEF
:10150000F801EF59FA4FD183C083DF91CF911F913A
:101510000F91FF90EF90DF90CF90BF90AF909F9092
:101520008F9008957B01D82F833041F08BEF800F8F
:10153000823020F087EF800F833058F461E08D2FE8
:101540000E940E02E114F10461F460E08D2F0E940C
:10155000C201000F111FF801EF59FA4FF182E0822A
:10156000D4CF8FEFE816F10411F461E0EFCFF8016A
:10157000EE58FF4FE491E33021F148F4E130B9F047
:10158000E230D1F080E8E816F1047CF7DECFE730F6
:1015900011F1E83041F1E430A9F7809180008062D8
:1015A00080938000F0928B00E0928A00D2CF84B5C5
:1015B000806884BDE7BCCDCF84B5806284BDE8BCC3
:1015C000C8CF80918000806880938000F09289006D
:1015D000E0928800BECF8091B00080688093B00018
:1015E000E092B300B6CF8091B00080628093B000EB
:1015F000E092B400AECF9EEF980F923180F4E82FC6
:10160000F0E0DF01A55BBA4F9C91913041F4EE0F01
:10161000FF1FEF59FA4F608371830C94C201089544
:10162000FF920F931F93CF93DF9300D0CDB7DEB718
:10163000082F10E0F801E456FC4F9081F62EF922B5
:1016400006521D4F411104C0F80190819F1511F100
:101650002F2D30E03A832983A0910805B091090528
:101660001097B1F0682F6F706069ED91FC91119740
:101670000190F081E02DCD01099522E030E0AE012E
:101680004F5F5F4F62E070E088E095E00E94E00409
:10169000F801F0820F900F90DF91CF911F910F9181
:1016A000FF900895833040F5282F30E0F901E1568E
:1016B000FC4F6083672B01F124563C4FF901608198
:1016C000811106C099B19C7F692341E00C94100BF5
:1016D000813049F493B126B19F73F0E42F9F9001BC
:1016E0001124922BF1CF26B130E035952795359511
:1016F00027952F706223E9CF0895A82FB0E0AC534F
:10170000BD4F9C91292F30E0F901EE0FFF1FE20F32
:10171000F31FE154FA4FE0812E2F30E0F901EE0F74
:10172000FF1FE20FF31FE656FA4F80818F7B808305
:101730008091C202981308C0992319F09150909398
:10174000C2028FEF8C9308958823D9F3E091C302EE
:10175000EF5FE093C302F0E0ED58FD4F9083F1CFCF
:10176000FC0101900020E9F73197BF01681B790B5C
:10177000AC0181E70C94DF05CF93DF93DB019091FF
:10178000C2029C3078F53091C302682F70E0FB01F3
:10179000EC53FD4F3323E1F0C32FD0E0CD58DD4FA4
:1017A0008881808331503093C302808123E0829FFF
:1017B000C001112481549A4F1A161B0674F4141692
:1017C00015065CF49A01AD01DF91CF910C94850868
:1017D00090839F5F9093C202E8CF20E639E040E219
:1017E00052E0F2CF8BE491E0DF91CF910C94B00BFB
:1017F0001F93CF93DF93EC0118E0612FCE010E947D
:10180000B604009711F00E94891D1F5F1C30A9F7D4
:101810008FEF8AA3FE013A96A29611921192CE17EB
:10182000DF07D9F7DF91CF911F9108958F929F9293
:10183000AF92BF92DF92EF92FF920F931F93CF93DD
:10184000DF93EC01D901603609F0A0C08C91282FFC
:101850002F70F22E9BE0921708F498C0807F80339F
:1018600009F490C18D01E42E813338F48031A9F15F
:10187000803209F469C181E08AC0803609F4E0C190
:10188000803709F4ECC18035B1F7622FCE010E9498
:10189000B604EC01009779F3B7E0BF1508F4CAC1AC
:1018A000E881F9810680F781E02D0995EA89FB89B5
:1018B00080818F7E8083EA89FB898081877F808316
:1018C000EA89FB8980818F778083EA89FB8980811F
:1018D0008F7D80838A8D898FCECF12968C901297C0
:1018E000912CB12CA12CE7E0880C991CAA1CBB1CE4
:1018F000EA95D1F713968C9190E0B0E0A0E0FEE07D
:10190000880F991FAA1FBB1FFA95D1F7882999291B
:10191000AA29BB29F80121814C015D01822AF7E047
:10192000FF1560F06F2DCE010E94B604009709F4F8
:10193000A2CFB501A4010E9438019DCF24E0241755
:1019400008F5D8011496EC9014971596DC90BAE03F
:10195000FB1609F4C4C0EBE0FE1609F4D1C0F9E0AF
:10196000FF1221C08DA19EA1892B61F58FE190E02E
:101970000E94ED1C8C014D2D6E2D0E94DE161EA3C3
:101980000DA320C08FE591E00E94B00B80E0DF91B5
:10199000CF911F910F91FF90EF90DF90BF90AF908C
:1019A0009F908F9008958BA19CA1892B59F48FE172
:1019B00090E00E94ED1C8C014D2D6E2D0E94DE16D4
:1019C0001CA30BA36F2DCE010E94B604EC01892B42
:1019D00009F451CFEE2DF0E0E55BFA4F80818F37AF
:1019E00011F08AE08083ED2DF0E0E55BFA4F808115
:1019F0008F3711F08AE080831B8E1A8E198E188E15
:101A00001F8A1E8A60E079E08DE390E0A5019401D1
:101A10000E94781CF901C90103972430310510F4A4
:101A200081E090E09D8F8C8F6C85663108F053C00B
:101A3000C901969587958431910508F472C0439742
:101A40009F8B8E8BC9010597369710F481E090E04B
:101A5000998F888FC901880F991F280F391F3695D4
:101A60002795369527952D30310508F45DC02C500B
:101A700031093B8F2A8F9091680084E0683048F0EC
:101A800021E06E3008F420E081E001C0880F2A9543
:101A9000EAF7892B809368009C852DE630E098302A
:101AA00050F02BE630E09E3030F02CE630E09631FE
:101AB00010F030E020E03C8B2B8B292F30E0983069
:101AC000B0F581E001C0880F9A95EAF78D8B8C8D77
:101AD0009D8D0197F1F7CE010E948D04CCCE8FA190
:101AE00098A5892B09F06ECF8FE190E00E94ED1C44
:101AF0008C014D2D6E2D0E94DE1618A70FA362CF0C
:101B000089A59AA5892B09F05DCF8FE190E00E940D
:101B1000ED1C8C014D2D6E2D0E94DE161AA709A713
:101B200051CF81E090E08CCF21E030E0A2CF9E3019
:101B300040F42850310981E001C0880F2A95EAF766
:101B4000C5CF2E503109F7CF622FCE010E94B604C7
:101B50005C01892B09F48FCEE80111E01E1508F015
:101B60008ACE6A816795662767958981680FD50156
:101B7000ED91FC910190F081E02DC50109951E5F6A
:101B80002296ECCF11968C911197811126C03AA123
:101B900037300CF070CE822F90E00596880F991F99
:101BA000FE01E80FF91F4330A8F013968C911397AC
:101BB00020E8829FC001112412962C91822B9183E0
:101BC000808381E0830F8AA3C80FD11D87FDDA953A
:101BD000FA8251CE11821082F4CF813009F04BCEBF
:101BE0009AA119161CF08FEF8AA345CE80E0492FE9
:101BF000092E000C550B282F30E04217530774F4C0
:101C000080E0E82FF0E04E175F078CF0883020F47A
:101C1000EC0FFD1F238122838F5FF3CF2C0F3D1F1D
:101C2000D90112962C91F21661F38F5FE4CF915097
:101C30009AA321CE0E947704CE010E94891D1BCE5B
:101C4000622FCE010E94B604009709F414CEDC0185
:101C5000ED91FC910680F781E02D09950CCEB7E05F
:101C6000B21708F008CE622FCE010E94B60400978A
:101C700009F032CF00CE85ED8093BC008091030443
:101C800090910404A0910504B09106040796A11D4B
:101C9000B11D23E0B695A795979587952A95D1F71D
:101CA0002091BC0024FD03C01092010408954091CE
:101CB0000304509104046091050470910604452BBF
:101CC000462B472B69F30097A105B10541F02AE2A5
:101CD0002A95F1F700C00197A109B109E1CF8091E0
:101CE00002040C94EA069F92AF92BF92CF92DF92C9
:101CF000EF92FF920F931F93CF93DF93C82ED12CB7
:101D0000E601C853DB4FFE01ED57FF4F90819F372F
:101D100009F49FC0963061F49091DD02992341F05F
:101D20006630710529F01092DD029FEF909300015B
:101D30007B01182F0EEF080F023108F56430710592
:101D4000F1F0F601EC53FD4F80818C30C0F490E04F
:101D5000FC01EE0FFF1FE80FF91FE154FA4FE0817D
:101D60008E2F90E0FC01EE0FFF1FE80FF91FE656E3
:101D7000FA4F808186FF03C0812F0E947D0B52EFB6
:101D8000952E910E87E0891558F061E070E032E001
:101D9000E316F10411F070E060E0892D0E9404095F
:101DA0000231C8F4E12FE695E695E695F0E0E456B9
:101DB000FC4F2081312F377081E090E001C0880F07
:101DC0003A95EAF7E114F10421F03BE0E316F1045F
:101DD00001F5822B80835601AA0CBB1CF501EF593B
:101DE000FA4F118210828CE0E816F10408F0D3C09B
:101DF000F701E350F14F0C94E71C1D0F4A0F0C0F35
:101E0000610F800FCB0FB70FCB0FCB0FCB0FC30FD3
:101E1000350F80958223DECF37E03915D0F00231BF
:101E200020F460E0812F0E940E02CD57DF4F8881A1
:101E30008F3779F082E088830CC0023150F460E083
:101E4000812F0E940E02CD57DF4F88818F3709F016
:101E50001882DF91CF911F910F91FF90EF90DF904B
:101E6000CF90BF90AF909F900895023190F762E0BD
:101E7000812F0E940E02CD57DF4F88818F3711F0DE
:101E80008BE08883F501EF59FA4F81E090E0918370
:101E90008083DFCF0231E8F6FE01ED57FF4F8081EE
:101EA000833021F460E0812F0E94C20161E0812F24
:101EB0000E940E02CD57DF4F88818F3751F281E0AB
:101EC000BACF133049F08BEF810F823028F087EFC3
:101ED000810F833008F0BDCF61E0812F0E940E0298
:101EE00061E0812F0E940E0260E0812F0E94C201FA
:101EF000CD57DF4F88818F3709F4ABCF83E09BCF7D
:101F0000023108F0A6CFCD57DF4F88818F3711F00F
:101F100084E08883F601EC53FD4F80818F3FA9F068
:101F200090E0FC01EE0FFF1FE80FF91FE154FA4F9C
:101F3000E0818E2F90E0FC01EE0FFF1FE80FF91FEC
:101F4000E656FA4F808186FD84CF4FEF5FEF6FEF4B
:101F50007FEF812FDF91CF911F910F91FF90EF9035
:101F6000DF90CF90BF90AF909F900C94BC0B12511C
:101F7000123008F06ECFCD57DF4F88818F3709F4CC
:101F800068CF86E058CFCD57DF4F88818F3709F46F
:101F900060CF8AE050CF8DE791E0DF91CF911F9124
:101FA0000F91FF90EF90DF90CF90BF90AF909F90F8
:101FB0000C94B00B0F931F93CF93DF9381E080932A
:101FC000DE0283EE95E00E94F80B8091DD0288230B
:101FD00029F01092DD028FEF8093000110929F0391
:101FE00010929C031092DA021092A00310929D03AB
:101FF0001092DB021092A10310929E031092DC0259
:1020000004EC12E0C0E0DFEF82EF8C0F62E070E0E2
:10201000883030F08EEF8C0F823128F461E070E070
:102020008C2F0E94730EF801D1938F01CF5FC631C0
:1020300059F71092CD031092CC031092C302109264
:10204000C2021092DE02DF91CF911F910F9108958D
:102050004F925F926F927F928F929F92AF92BF92B8
:10206000FF920F931F93CF93DF93F82E8B01D42F02
:10207000C22F6F3F760709F490C081E08093070478
:10208000F09229041092080410922A048EE895E038
:102090000E9453088C2F0E940B078091C0029091E0
:1020A000C1028230910538F0880F991F880F991F5F
:1020B00005970197F1F70E945F024B015C01809147
:1020C000010481116CC0CD2FD13208F0C0E281E053
:1020D00080930104809300049FEF9093FF0310927C
:1020E000FE039C0F9093FD038093DC039091DC032F
:1020F0008F2D880F892B8093DC038091DB03813047
:1021000009F0A1C01092DB030E945F024B015C0149
:102110008091DC038093BB008091030490910404C0
:10212000A0910504B0910604892B8A2B8B2BA1F07A
:102130000E945F02409003045090040460900504E4
:1021400070900604681979098A099B094616570692
:102150006806790608F444C08091BC0083FDD8CF9E
:1021600085EC8093BC000E945F024B015C01809172
:102170000104813009F469C08091FE038C1710F4CA
:10218000C091FE03EDEDF3E0A0EEB2E080E08C172D
:1021900061F191919D938F5FFACF00E08CCF809198
:1021A000030490910404A0910504B0910604892BC6
:1021B0008A2B8B2B09F483CF0E945F02409003048B
:1021C0005090040460900504709006046819790921
:1021D0008A099B09461657066806790608F06FCFEC
:1021E000809102040E94EA06C0E010920103C093AD
:1021F00000032D2F30E08C2F90E0281739070CF0CA
:1022000046C08EE891E00E94B00BF09280020093ED
:10221000810200E812E0AD2EB12CC8018058924036
:102220008A159B050CF041C00F5F1F4F9091000372
:10223000809101039817C9F18EE895E00E940C087F
:10224000F8018183EACF85EE8CCF809103049091D1
:102250000404A0910504B0910604892B8A2B8B2BD2
:1022600009F485CF0E945F0240900304509004045B
:102270006090050470900604681979098A099B0921
:10228000461657066806790608F071CFA9CF82175F
:1022900093070CF0BACF8BEA91E00E94B00BD0917B
:1022A000000380910103D81BB0CFDE5F6D2F70E07B
:1022B00040E852E087E7DF91CF911F910F91FF90A7
:1022C000BF90AF909F908F907F906F905F904F9056
:1022D0000C94DF05EF92FF920F931F93CF93DF9340
:1022E00080568B3108F03CC0EA01162FE82FF0E051
:1022F000E458FE4E0C94E71CDC13B011B011B01181
:10230000B011B011B011B011B011CB13B011321324
:10231000B0118A13B0111013B412B011B011B01172
:10232000B011B0119711B0117812B011FA12998151
:1023300095FF0AC087EC91E0DF91CF911F910F913B
:10234000FF90EF900C94B00B888131E096FB222730
:1023500020F9232798719830D1F148F49923A9F0F6
:10236000DF91CF911F910F91FF90EF9008959031E1
:1023700009F44CC09831A1F72091000112160CF419
:1023800072C08FEF80930001EBCF309307048093EE
:1023900029041092080410922A0402E0011778F42C
:1023A000FE01E00FF11D61816795662767958081C9
:1023B000680F8EE895E00E9453080E5FEFCF81E032
:1023C0000E940B0783E191E00197F1F7C9CF9A8151
:1023D0004B816630A1F430E8439FB0011124690FAE
:1023E000711D4D814795442747959C81490FDF9189
:1023F000CF911F910F91FF90EF900C94281047956B
:1024000044274795490F6FEF7FEFF1CFE09100012F
:10241000E7301CF087EE91E08FCF3A819B816630E8
:10242000D9F460E8969FA0011124430F511D9D81AE
:102430009795992797953C81930FEF5FE093000163
:1024400035E0E302F0011124EC55FC4F8083528308
:1024500041839383248384CF979599279795930FEE
:102460004FEF5FEFEACF90E0622F022E000C770B68
:1024700035E0492F50E06417750764F0349FF00190
:10248000359FF00D1124EC55FC4F4081481719F091
:102490009F5FEFCF90E085E0492F50E0641775070C
:1024A0001CF19830F8F4FA0131968E9FD0018F9F7D
:1024B000B00D1124AC55BC4F3C91849FF001859F19
:1024C000F00D1124EC55FC4F308311964D915C9129
:1024D00012975283418313963C911397338314963A
:1024E0003C9134839F5FD8CF21502093000138CF97
:1024F000623078F0898160E8869F9001112488819C
:10250000820F932F911D009721F09093C102809329
:10251000C0028091DD02811123CFC0E08EEE8C0FCE
:10252000823028F466E070E08C2F0E94730ECF5F3B
:10253000C631A1F781E08093DD0210920103109271
:1025400000031092080410922A040E94CC068BEF1C
:1025500097E090932403809323038CEF97E090936C
:10256000280380932703FCCE653008F4F9CE188148
:102570008EEF810F823108F0F3CE0981EA80FB8073
:10258000CC81E12FF0E0EC53FD4F80818C30C0F422
:1025900090E0FC01EE0FFF1FE80FF91FE154FA4F26
:1025A000E0818E2F90E0FC01EE0FFF1FE80FF91F76
:1025B000E656FA4F808186FF03C0812F0E947D0B73
:1025C00080E8C89FA00111244F0D511D90E8E99E9D
:1025D000B0011124600F711D812F0E94BC0B64E0BB
:1025E00070E0812FDF91CF911F910F91FF90EF90BD
:1025F0000C94730E623008F4B3CE8981E0E88E9FAC
:10260000900111248881820F932F911D009729F04A
:102610009093020180930101A3CE81E090E0F8CF76
:10262000623008F49DCE698170E0123091F08A81A9
:10263000F0E88F9FC0011124682B792B133049F0EB
:102640008B8190E090E4899F902D88271124682B3E
:10265000792B8881DF91CF911F910F91FF90EF909F
:102660000C94DD0980EF0E94DC008CE60E94DC0007
:10267000CEEF84EF8C0F883020F582E00E94DC00E2
:102680008AE00E94DC008DEF8C0F8230E0F089EF51
:102690008C0F8330F0F417C0C23158F780E00E94ED
:1026A000DC0081E00E94DC008BE00E94DC0081E025
:1026B0000E94DC0081E00E94DC0081E00E94DC00DE
:1026C000D8CFC13001F783E00E94DC0088E00E948F
:1026D000DC00C23130F484E00E94DC008EE00E9415
:1026E000DC0080EF8C0F823030F486E00E94DC004A
:1026F00081E00E94DC008FE70E94DC00CF5FC431E4
:1027000059F687EFDF91CF911F910F91FF90EF90D6
:102710000C94DC00662309F423CEC88180EF0E946C
:10272000DC008EE60E94DC008C2F0E94DC00C631AB
:1027300040F7D0E0FE01E55BFA4F80810E94DC00AB
:10274000CC0FDD1F8E010F591A4FF80180818F7752
:102750000E94DC00F801808191819C012078232B6C
:1027600039F0880F892F881F990B8F770E94DC0022
:10277000CF59DA4F888199819C012227307C232B05
:1027800009F4BFCF990F880B990F982F881F8F7767
:102790000E94DC00B6CF80EF0E94DC008AE60E9437
:1027A000DC00C2EF8FE7C83008F48C2F0E94DC00F9
:1027B000CF5FC830B9F7A5CF9A01462F60E683EE08
:1027C00095E0DF91CF911F910F91FF90EF900C94C6
:1027D000160C1F920F920FB60F9211242F933F9356
:1027E0008F939F93AF93BF938091D3039091D40322
:1027F000A091D503B091D6033091D20323E0230FEB
:102800002D3758F50196A11DB11D2093D203809359
:10281000D3039093D403A093D503B093D6038091B0
:10282000D7039091D803A091D903B091DA03019610
:10283000A11DB11D8093D7039093D803A093D90312
:10284000B093DA03BF91AF919F918F913F912F91F8
:102850000F900FBE0F901F90189526E8230F029639
:10286000A11DB11DD2CF1F920F920FB60F9211244E
:102870002F933F934F935F936F937F938F939F9388
:10288000AF93BF93EF93FF938BE294E00E943C03DE
:10289000FF91EF91BF91AF919F918F917F916F9138
:1028A0005F914F913F912F910F900FBE0F901F900E
:1028B00018951F920F920FB60F9211242F938F939A
:1028C0009F93EF93FF93E0913B04F0913C04808150
:1028D000E0914104F091420482FD1BC090818091FF
:1028E00044048F5F8F7320914504821741F0E0917B
:1028F0004404F0E0E55DFB4F958F80934404FF9125
:10290000EF919F918F912F910F900FBE0F901F907D
:1029100018958081F4CF1F920F920FB60F92112459
:102920002F933F934F935F936F937F938F939F93D7
:10293000AF93BF93EF93FF93E091A203F091A303B2
:10294000309749F0A685B7858585968D91FF14C08F
:102950009C918923A1F4FF91EF91BF91AF919F9139
:102960008F917F916F915F914F913F912F910F9038
:102970000FBE0F901F9018959C91892361F7A38932
:10298000B4899C918589809589238C9386899789C0
:102990000197F1F7608D718DA685B785558538E073
:1029A00020E0CB010197F1F7822F90E09595879574
:1029B000282F4C91452309F02068315091F7868DDE
:1029C00081FD209580918A0390E001968F7399276D
:1029D00030918B03381799F0A0918A03B0E0A65B81
:1029E000BC4F2C9380938A03828D938D0197F1F7CE
:1029F000A389B4898C919589892B8C93ACCF868DD2
:102A00008160868FF1CF1F920F920FB60F92112423
:102A10002F933F934F935F936F937F938F939F93E6
:102A2000AF93BF93EF93FF938091B900887F803677
:102A300009F44AC0F0F5883209F4A7C018F58031CE
:102A400009F49BC0B8F4882309F4F9C0883009F46C
:102A500094C0FF91EF91BF91AF919F918F917F9122
:102A60006F915F914F913F912F910F900FBE0F90FB
:102A70001F901895883109F488C0803251F78093EF
:102A8000FF0314C0803409F49DC040F48033B9F3CF
:102A90008833F9F68093FF0385ECB0C0803509F4E4
:102AA00085C0883509F496C0883499F60E943B0E9B
:102AB000D0CF883909F48CC038F5883729F050F424
:102AC000883611F0803729F683E080930104109254
:102AD000490357C0883809F47BC0803919F0803821
:102AE00009F0B7CF80914903803208F071C0E091BE
:102AF000490381E08E0F809349038091BB00F0E091
:102B0000E75DFC4F80833DC0803B39F0E0F4803AC4
:102B100009F479C0883A09F09CCF84E080930104DD
:102B20001092260310922503E0912303F0912403D1
:102B300009958091250381110FC081E080932503C1
:102B40001092030309C0803C09F4A6CF883C09F425
:102B5000A3CF883B09F07DCFE091260381E08E0F63
:102B600080932603F0E0ED5FFC4F80818093BB00F3
:102B7000909126038091250329C08091DC038093E6
:102B8000BB0085EC8093BC0064CF9091FE038091E4
:102B9000FD03981758F5E091FE0381E08E0F8093B6
:102BA000FE03F0E0E352FC4F8081E9CFE091FE03A9
:102BB00081E08E0F8093FE038091BB00F0E0E35232
:102BC000FC4F80839091FE038091FD039817C8F21B
:102BD00085E8D8CFE091FE0381E08E0F8093FE035D
:102BE0008091BB00F0E0E352FC4F808380910004B1
:102BF00081115CCF81E08093DB0384EA8093BC0089
:102C00001092010426CF85EC8093BC001092010441
:102C100080914903803230F4E0914903F0E0E75DB0
:102C2000FC4F10826091490370E0E0912703F0911E
:102C3000280389E293E00995109249030ACF109284
:102C4000FF0334CF1F920F920FB60F9211242F93D0
:102C50003F934F935F936F937F938F939F93AF9324
:102C6000BF93CF93DF93EF93FF938091DF02C091E7
:102C7000BE05D0E087FF24C010928500109284002A
:102C80008091DF028F5F8093DF028091DF02082E48
:102C9000000C990B8C179D0724F48091DF028C3077
:102CA000C4F18091840090918500049680349C4901
:102CB00008F47AC08091840090918500049676C0D3
:102CC0008091DF02082E000C990B8C179D07C4F62B
:102CD000E091DF028E2FEE0F990BFC01EE0FFF1F2C
:102CE000E80FF91FE656FA4F808186FFC9CFE091C1
:102CF000DF028E2FEE0F990BFC01EE0FFF1FE80F86
:102D0000F91FE656FA4F808160E08F730E94C2017E
:102D1000B7CF2091840030918500E091DF028E2FA3
:102D2000EE0F990BFC01EE0FFF1FE80FF91FE6569F
:102D3000FA4F81819281820F931F90938900809333
:102D40008800E091DF028E2FEE0F990BFC01EE0F51
:102D5000FF1FE80FF91FE656FA4F808186FF11C06A
:102D6000E091DF028E2FEE0F990BFC01EE0FFF1F9B
:102D7000E80FF91FE656FA4F808161E08F730E94D9
:102D8000C201FF91EF91DF91CF91BF91AF919F91E0
:102D90008F917F916F915F914F913F912F910F9004
:102DA0000FBE0F901F90189580E49CE990938900C6
:102DB000809388008FEF8093DF02E3CF0F931F9300
:102DC000CF93DF93EC01162F042F1B821A8288EE1B
:102DD00093E0A0E0B0E08C839D83AE83BF838DE061
:102DE00091E0998388831F8A1E8A198E188E1B8E04
:102DF0001A8E1D8E1C8E6E8D6E7F6D7F6E8F66950A
:102E0000617081E06827842F0E94C20161E0802FF9
:102E10000E940E02802F90E0FC01E255FF4FE491EA
:102E2000E88BFC01E656FF4FE491F0E0EE0FFF1F48
:102E3000E057FF4F859194919A8B898B60E0812FA9
:102E40000E940E028E8D81FD04C061E0812F0E94E0
:102E5000C2011C87812F90E0FC01E255FF4FE491F5
:102E6000ED87FC01E656FF4FE491F0E0EE0FFF1F07
:102E7000EA57FF4F859194919F878E87DF91CF917D
:102E80001F910F91089510922E0410922D0448EE78
:102E900053E060E070E040932F045093300460935F
:102EA0003104709332048FE191E090932C0480936D
:102EB0002B0485EC90E0909338048093370484ECE5
:102EC00090E090933A048093390480EC90E09093E2
:102ED0003C0480933B0481EC90E090933E0480930B
:102EE0003D0482EC90E09093400480933F0486EC94
:102EF00090E0909342048093410410924404109215
:102F00004504109246041092470488EC94E0109215
:102F100009051092080590930C0580930B0520E499
:102F200030E030930E0520930D0510920F0510929E
:102F300010051092120510921105109213051092AF
:102F4000150510921405109217051092160510928F
:102F500019051092180510921B0510921A0510926F
:102F60001D0510921C0510921F0510921E0510924F
:102F70002105109220051092270510922605109227
:102F800029051092280510922B0510922A051092FF
:102F90002D0510922C0510923B0510923A051092C7
:102FA0000A051092480510924A05109249051092A0
:102FB0008D052CE830E030932F0520932E0526E96F
:102FC00030E0309331052093300520EA30E0309333
:102FD0003305209332052AEA30E0309335052093FB
:102FE000340524EB30E030933705209336052EEB83
:102FF00030E0309339052093380528EC30E03093E9
:103000003D0520933C0529EC30E030933F052093AB
:103010003E0520EA36E03093410520934005909329
:1030200023058093220527EB32E03093430520935C
:103030004205909325058093240584ED90E09093BC
:103040004505809344051092910510929005409398
:10305000920550939305609394057093950581E3D1
:1030600091E090938F0580938E0583E491E0909397
:10307000E4058093E305109207061092060610926D
:1030800009061092080610920B0610920A0610927A
:103090000D0610920C068FEF80930506EFEBF5E01E
:1030A0002FEF48EB5BE08091BE058C30B8F491E0E7
:1030B000980F9093BE05808390E0DC01AA0FBB1FA0
:1030C000A80FB91FA656BA4F12965C934E9311974C
:1030D000339685E0E33EF80731F708952083F8CF73
:1030E000789484B5826084BD84B5816084BD85B5E3
:1030F000826085BD85B5816085BD80916E008160EF
:1031000080936E0010928100809181008260809394
:103110008100809181008160809381008091800096
:103120008160809380008091B10084608093B100C1
:103130008091B00081608093B00080917A008460BB
:1031400080937A0080917A00826080937A008091E7
:103150007A00816080937A0080917A008068809301
:103160007A001092C10089E1809348058091490559
:1031700090914A050E94891DC0914805D0E0CE017A
:1031800001960E94ED1C90934A0580934905FC012D
:10319000EC0FFD1F108222E0DC012C9325E011963C
:1031A0002C93AE01425051096CE572E002960E94E8
:1031B000121E8DED99E0909397038093960381E31F
:1031C00099E0909395038093940384E099E0909321
:1031D00093038093920382E59BE090939103809305
:1031E000900383E79EE090938F0380938E038BEF91
:1031F0009AE090938D0380938C038AE691E19093FB
:103200009903809398038AED9FE090939B038093AA
:103210009A0381E080938D0540E051EE60E070E01C
:103220008BE294E00E94380180918D0581114FC09E
:1032300061E08DE00E940E0262ED70E080E090E0BF
:103240000E94840261E08DE00E94C20168E270E0A9
:1032500080E090E00E94840260E08DE00E94C20164
:1032600062ED70E080E090E00E94840261E08DE019
:103270000E94C20168E270E080E090E00E94840257
:1032800060E08DE00E94C2016AEF70E080E090E0B3
:103290000E948402C5E062ED70E080E090E00E9450
:1032A000840261E08DE00E94C20168E270E080E08B
:1032B00090E00E94840260E08DE00E94C201C15053
:1032C00051F76DE770E080E090E00E9484028BE2AD
:1032D00094E0909347058093460590930905809369
:1032E000080588E095E00E94980188EC94E00E942F
:1032F0002C060E94DA0F25E0722E00E010E0662412
:10330000639432E0E32EF12CCC24C394D12C809131
:103310009F03882349F069B180919C0368236C7FE7
:1033200040E080E00E94100B8091A003882379F098
:1033300063B186B16F73B0E48B9FC0011124682B19
:1033400080919D03682340E081E00E94100B8091F2
:10335000A103882359F066B180919E038F70669512
:103360006695682340E082E00E94100B809146053C
:1033700090914705DC01ED91FC910084F185E02DF1
:103380000995892B09F4CEC1809146059091470596
:10339000DC01ED91FC910284F385E02D09959C01FF
:1033A0008F3F980719F3982F80911305882309F40C
:1033B00092C0973F09F07EC010921305A0910B05B3
:1033C000B0910C056C916137C1F1693709F05CC0AF
:1033D000E0914005F0914105309741F2809114054C
:1033E000909115058330910560F430E020E050E0C5
:1033F00040E070E060E080912205909123050995FE
:10340000B5CFBD016D5F7F4F03970E941901BC01CD
:103410006D5F7F4F80E00E94E900E0910B05F09125
:103420000C059F012D5F3F4F428150E0618170E0AC
:10343000E0914005F0914105DECF80913C059091EF
:103440003D05892B09F492CFBD016F5F7F4F8091BD
:1034500014059091150501970E941901BC016F5F39
:103460007F4F80E00E94E90060910B0570910C0590
:103470006F5F7F4FE0913C05F0913D0580912805FD
:1034800090912905099572CFE0913E05F0913F0595
:10349000309709F46BCF9D012F5F3F4F409114058A
:1034A000509115054150510980912A0590912B05A5
:1034B00009955CCF6091140570911505822F0E94CB
:1034C000E9008091140590911505019690931505DA
:1034D000809314054BCF6091110570911205611511
:1034E000710509F4B1C027FDAFC061507109709337
:1034F000120560931105822F0E94E9008091110549
:1035000090911205892B09F031CF80910F05882306
:1035100009F42CCF803D09F483C040F4803949F18F
:10352000803C09F469C010920F0520CF843FE1F17F
:10353000853F09F44DC0803EB1F7E0912E05F09132
:103540002F05309781F3A0910B05B0910C054C919C
:1035500020E8429FC001112411964C91480F592F29
:10356000511D6091100580911605909117050995E0
:10357000DACFE0913005F09131053097A1F2A091BA
:103580000B05B0910C054C9120E8429FC00111241D
:1035900011964C91480F592F511D60911005809143
:1035A000180590911905E3CFE0913605F0913705A4
:1035B000309709F4B8CFA0910B05B0910C054C9150
:1035C00050E011966C9180911E0590911F05CFCF10
:1035D000E0913805F0913905309709F4A4CFA09116
:1035E0000B05B0910C054C9150E011966C918091B7
:1035F000200590912105BBCFE0913205F091330574
:10360000309709F490CFA0910B05B0910C054C9127
:1036100050E06091100580911A0590911B05A7CF8D
:10362000E0913405F0913505309709F47CCFA091F5
:103630000B05B0910C054C9150E060911005809104
:103640001C0590911D0593CF903F30F4822F8F7011
:1036500080931005922F907F903FF1F190F4903C71
:10366000B1F150F4903909F081CEF0921205E09258
:10367000110590930F057ACE903D49F1903EA9F344
:1036800075CE993F09F442C028F48CE0890F82304E
:1036900060F36CCE9F3F09F069CE10921205109234
:1036A000110510920F051092100590E080E0209116
:1036B0000D0530910E0582179307A8F4E0910B05D4
:1036C000F0910C05E80FF91F10820196F0CFD0920F
:1036D0001205C0921105CDCF609213051092150509
:1036E0001092140543CE10921305109215051092F6
:1036F0001405E0914405F091450580912C059091C9
:103700002D05309709F432CE099530CEE09142056F
:10371000F0914305309709F429CE809124059091CA
:103720002505F2CF8FB7F8948090D3039090D403FF
:10373000A090D503B090D6038FBF8091CE03909117
:10374000CF03A091D003B091D103409101015091DA
:10375000020170E060E0881A990AAA0ABB0A4815BB
:1037600059056A057B0508F051C0840F951FA61FF7
:10377000B71F8093CE039093CF03A093D003B09351
:10378000D10398ECA92E94E0B92EC2EFC830C8F44A
:10379000F501ED57FF4F8081823099F48091CC0381
:1037A0009091CD030C2E02C0959587950A94E2F76F
:1037B00080FF07C08C2F0E944A02BC018C2F0E9400
:1037C0007F05CF5F8FEFA81AB80AC830F9F680914D
:1037D000000187FD1BC0C0E02C2F30E0809100016C
:1037E000082E000C990B8217930784F0729EF0014B
:1037F000739EF00D1124EC55FC4F61817281248180
:10380000438180810E942810CF5FE6CF809105061A
:1038100087FD62C0412C842D90E020910506022E88
:10382000000C330B281739070CF456C08D519A4FF2
:10383000DC0112965C90652D83EE95E00E94B60443
:10384000EC01892B09F446C0B7E0B51538F4809136
:10385000A2039091A303C817D907E1F5E52DF0E085
:10386000EE0FFF1FE351FA4F80809180E881F981CC
:103870000084F185E02DCE0109955C01181619062A
:103880004CF51814190424F4881699060CF4540104
:1038900080EF0E94DC0080E60E94DC00852D8064C1
:1038A0000E94DC00E881F9810284F385E02DCE01DD
:1038B0000995982E8F770E94DC00892D881F882714
:1038C000881F0E94DC00E1E0AE1AB10859F787EFCB
:1038D0000E94DC0043949FCF0115110509F417CD18
:1038E0000E942803882309F412CD0E9400000FCD06
:1038F000052E97FB1EF400940E948F1C57FD07D0E5
:103900000E94AA1C07FC03D04EF40C948F1C509507
:103910004095309521953F4F4F4F5F4F08959095BB
:103920008095709561957F4F8F4F9F4F08950E94AE
:10393000CC1CA59F900DB49F900DA49F800D911D50
:1039400011240895B7FF0C94971C0E94971C821BAA
:10395000930B0895A1E21A2EAA1BBB1BFD010DC0FB
:10396000AA1FBB1FEE1FFF1FA217B307E407F5072F
:1039700020F0A21BB30BE40BF50B661F771F881F0B
:10398000991F1A9469F760957095809590959B01A1
:10399000AC01BD01CF010895A29FB001B39FC0014A
:1039A000A39F700D811D1124911DB29F700D811D6B
:1039B0001124911D0895991B79E004C0991F961751
:1039C00008F0961B881F7A95C9F780950895EE0F29
:1039D000FF1F0590F491E02D09940F931F93CF934F
:1039E000DF938230910510F482E090E0E0911006C0
:1039F000F091110630E020E0B0E0A0E0309799F4BB
:103A00002115310509F44AC0281B390B2430310532
:103A1000D8F58A819B816115710589F1FB0193833A
:103A20008283FE0111C040815181028113814817B8
:103A30005907E0F04817590799F4109761F012966A
:103A40000C93129713961C933296CF01DF91CF916E
:103A50001F910F9108950093100610931106F4CF53
:103A60002115310551F04217530738F0A901DB0148
:103A70009A01BD01DF01F801C1CFEF01F9CF9093A9
:103A8000110680931006CDCFFE01E20FF31F819344
:103A900091932250310939832883D7CF20910E0684
:103AA00030910F06232B41F420910501309106013E
:103AB00030930F0620930E062091030130910401EC
:103AC0002115310541F42DB73EB7409107015091C2
:103AD0000801241B350BE0910E06F0910F06E2174A
:103AE000F307A0F42E1B3F0B2817390778F0AC0121
:103AF0004E5F5F4F2417350748F04E0F5F1F5093FE
:103B00000F0640930E06819391939FCFF0E0E0E083
:103B10009CCFCF93DF930097E9F0FC01329713829B
:103B20001282A0911006B0911106ED0130E020E064
:103B30001097A1F420813181820F931F20910E06EE
:103B400030910F062817390709F061C0F0930F066E
:103B5000E0930E06DF91CF910895EA01CE17DF07BB
:103B6000E8F54A815B819E0141155105B1F7E901F4
:103B7000FB83EA8349915991C40FD51FEC17FD07C8
:103B800061F4808191810296840F951FE9019983E8
:103B90008883828193819B838A83F0E0E0E01296A0
:103BA0008D919C9113970097B9F52D913C911197A8
:103BB000CD010296820F931F20910E0630910F06C1
:103BC0002817390739F6309751F5109211061092DF
:103BD0001006B0930F06A0930E06BCCFD383C2830A
:103BE00040815181840F951FC817D90761F44E5F3A
:103BF0005F4F88819981480F591F518340838A8183
:103C00009B81938382832115310509F0B0CFF09316
:103C10001106E09310069ECFFD01DC01C0CF138298
:103C20001282D7CFFB01DC014150504048F0019097
:103C30000D920020C9F701C01D9241505040E0F79D
:103C40000895F894FFCFFF130000001206800000D3
:103C5000000000E403BE028208E30340045604CBE4
:103C600003000000005E03BE02EB02AB031C03FA7C
:103C7000020E0300000000530826088208E3031F19
:103C8000080C08FD0700000000CF04D004160CF853
:103C90000B4D617820736572766F73206174746167
:103CA0006368656400537065636966792073657243
:103CB00069616C20525820616E64205458207069EC
:103CC0006E7300556E6B6E6F776E2070696E206D2F
:103CD0006F6465004932433A20546F6F206D616E06
:103CE00079206279746573207265636569766564AD
:103CF000004932433A20546F6F206665772062791D
:103D00007465732072656365697665640031302D72
:103D10006269742061646472657373696E67206E92
:103D20006F7420737570706F7274656400746F6F58
:103D3000206D616E79207175657269657300433A13
:103D40005C55736572735C6C616D796A5C4170700F
:103D5000446174615C4C6F63616C5C54656D705C54
:103D60002E61726475696E6F4944452D756E73617D
:103D7000766564323032333132362D32353339366E
:103D80002D62747A6B36342E757562636C5C537475
:103D9000616E646172644669726D617461506C75C4
:103DA000735C5374616E646172644669726D6174B0
:0A3DB00061506C75732E696E6F0090
:107E0000112484B714BE81FFF0D085E080938100F7
:107E100082E08093C00088E18093C10086E0809377
:107E2000C20080E18093C4008EE0C9D0259A86E02C
:107E300020E33CEF91E0309385002093840096BBD3
:107E4000B09BFECF1D9AA8958150A9F7CC24DD24C4
:107E500088248394B5E0AB2EA1E19A2EF3E0BF2EE7
:107E6000A2D0813461F49FD0082FAFD0023811F036
:107E7000013811F484E001C083E08DD089C08234E0
:107E800011F484E103C0853419F485E0A6D080C0E4
:107E9000853579F488D0E82EFF2485D0082F10E0AE
:107EA000102F00270E291F29000F111F8ED06801E7
:107EB0006FC0863521F484E090D080E0DECF843638
:107EC00009F040C070D06FD0082F6DD080E0C81688
:107ED00080E7D80618F4F601B7BEE895C0E0D1E017
:107EE00062D089930C17E1F7F0E0CF16F0E7DF06D8
:107EF00018F0F601B7BEE89568D007B600FCFDCFD4
:107F0000A601A0E0B1E02C9130E011968C91119780
:107F100090E0982F8827822B932B1296FA010C0160
:107F200087BEE89511244E5F5F4FF1E0A038BF0790
:107F300051F7F601A7BEE89507B600FCFDCF97BE46
:107F4000E89526C08437B1F42ED02DD0F82E2BD052
:107F50003CD0F601EF2C8F010F5F1F4F84911BD097
:107F6000EA94F801C1F70894C11CD11CFA94CF0C13
:107F7000D11C0EC0853739F428D08EE10CD085E9AC
:107F80000AD08FE07ACF813511F488E018D01DD067
:107F900080E101D065CF982F8091C00085FFFCCF94
:107FA0009093C60008958091C00087FFFCCF809118
:107FB000C00084FD01C0A8958091C6000895E0E648
:107FC000F0E098E1908380830895EDDF803219F02E
:107FD00088E0F5DFFFCF84E1DECF1F93182FE3DFCA
:107FE0001150E9F7F2DF1F91089580E0E8DFEE27F6
:047FF000FF270994CA
:027FFE00040479
:00000001FF
